:020000040800F2
:100000002808002049010008451400085110000884
:1000100000000000000000000000000000000000E0
:10002000000000000000000000000000491400086B
:100030000000000000000000471400084B140008F6
:100040005B010008000000005B0100085B01000884
:100050005B0100085B0100085B0100085B01000810
:10006000000000005B0100085B0100085B01000864
:100070005B0100085B0100085B0100080000000054
:100080005B01000800000000000000005B010008A8
:10009000000000005B0100085B0100085B01000834
:1000A0005B0100085B0100085B0100085B010008C0
:1000B0005B010008000000000000000000000000DC
:1000C00000F002F800F030F80CA030C8083824180E
:1000D0002D18A246671EAB4654465D46AC4201D180
:1000E00000F022F87E460F3E0FCCB6460126334282
:1000F00000D0FB1AA246AB4633431847F422000057
:10010000142300000023002400250026103A01D308
:1001100078C1FBD8520700D330C100D50B607047BF
:100120001FB51FBD10B510BD00F0FAF81146FFF75E
:10013000F7FF01F0B9FD00F012F903B4FFF7F2FF89
:1001400003BC00F019F90000074880470748004742
:10015000FEE7FEE7FEE7FEE7FEE7FEE704480549A7
:10016000054A064B70470000C1140008C100000892
:10017000280200202808002028040020280400204D
:1001800001E004C0091F0429FBD28B0701D50280BE
:10019000801CC90700D00270704700290BD0C3072C
:1001A00002D00270401C491E022904D3830702D5E5
:1001B0000280801C891EE3E70022EEE70022DFE7D1
:1001C000002203098B422CD3030A8B4211D3002354
:1001D0009C464EE003460B433CD4002243088B422E
:1001E00031D303098B421CD3030A8B4201D39446BB
:1001F0003FE0C3098B4201D3CB01C01A52418309AE
:100200008B4201D38B01C01A524143098B4201D367
:100210004B01C01A524103098B4201D30B01C01A92
:100220005241C3088B4201D3CB00C01A524183080C
:100230008B4201D38B00C01A524143088B4201D339
:100240004B00C01A5241411A00D201465241104699
:1002500070475DE0CA0F00D04942031000D340420E
:10026000534000229C4603098B422DD3030A8B4244
:1002700012D3FC22890112BA030A8B420CD38901E2
:1002800092118B4208D3890192118B4204D38901C8
:100290003AD0921100E08909C3098B4201D3CB0106
:1002A000C01A524183098B4201D38B01C01A5241BB
:1002B00043098B4201D34B01C01A524103098B42BF
:1002C00001D30B01C01A5241C3088B4201D3CB00AA
:1002D000C01A524183088B4201D38B00C01A52418D
:1002E000D9D243088B4201D34B00C01A5241411A64
:1002F00000D20146634652415B10104601D3404292
:10030000002B00D54942704763465B1000D3404242
:1003100001B50020C046C04602BD70477047704717
:10032000754600F025F8AE46050069465346C008FC
:10033000C000854618B020B5FFF710FF60BC00274D
:100340004908B6460026C0C5C0C5C0C5C0C5C0C5A1
:10035000C0C5C0C5C0C5403D49008D46704710B5F9
:100360000446C046C0462046FFF7E7FE10BD000029
:1003700000487047C401002001491820ABBEFEE7C9
:1003800026000200704770B58C180578401C6B077A
:100390005B0F01D10378401C2A1106D10278401C62
:1003A00003E00678401C0E70491C5B1EF9D12B0738
:1003B00005D40023521E0DD40B70491CFAE70378B4
:1003C000401CCB1A921C03E01D780D70491C5B1C6D
:1003D000521EF9D5A142D8D3002070BD72B6FEE7F7
:1003E00070B5044600F0C2F80546601C02D004480F
:1003F0000078241800F0BAF8401BA042FAD370BD70
:1004000008000020F0B5002303249AE02A460125C5
:100410009D402A407ED00E79B607B60F012E01D03E
:10042000022E16D186682746B4465E00B646B7400F
:100430006646BE43B446CF687646B7406646374305
:1004400087604668AE430D79ED06ED0F9D4035435C
:1004500045600D79ED43AD0708D0C5685F002646BD
:10046000BE40B5438E68BE402E43C6600D79AD07D1
:10047000AD0F022D0ED1DD08AD002D18AC462D6A52
:100480005E07F60E0F27B740BD430F69B7402F43F5
:1004900065462F6205685F002646BE40B5430E796B
:1004A000B607B60FBE402E4306604D68AD03AD0FD4
:1004B00046D09E08264DB6007519AC462D6E9E0797
:1004C000F60E0F27B740BD4305273F07B84201D1BD
:1004D00000270FE01F4FB84201D101270AE01E4F4D
:1004E000B84201D1022705E01C4FB84201D10327D1
:1004F00000E00527B7402F43154D664637662D6847
:100500004E689543F60200D51543114F3D607D6856
:10051000954300E014E04E68B60200D515437D60B7
:100520000B4D80356E684F689643BF0300D5164368
:100530006E602E684F689643FF0300D516432E6009
:100540005B1C0A681546DA4000D05FE7F0BD00008A
:10055000001802400004005000080050000C005039
:10056000002A01D08161704781627047014880682C
:10057000704700000800002002488168027889184E
:10058000816070470800002010B508480024016809
:10059000821511430160032000F00AF8002801D001
:1005A000012401E000F028F8204610BD00200240A0
:1005B00070B50F4E002431780546002915D07D20F6
:1005C000C000FFF7FDFD01460A480068FFF7F8FD8F
:1005D00000F032FB002808D1042D06D20022294663
:1005E000401E00F01FF8756000E00124204670BD39
:1005F000080000201400002008B509480168012205
:100600001143016000681040009005484038C26BFB
:1006100001040A43C263C06B0840009008BD00009B
:100620004010024010B501F0EDF810BD10B50F4CB0
:10063000216803225202914301432160C11FFF3907
:10064000FA390ED10A480621006848430949FFF7E4
:10065000B7FD401C02E0002805D0401E6169490535
:10066000F9D4002010BD032010BD00000070004030
:100670001400002040420F00F8B50F46060043D09A
:100680004D4D28684007400FB84213D22868C00873
:10069000C00038432860FFF769FF044605E0FFF714
:1006A00065FF011B4548814261D828684007400F1B
:1006B000B842F4D13068424C81070DD5400704D5CB
:1006C000A068072109030843A060A0680F21090260
:1006D0008843B1680843A0603078C00732D07068A2
:1006E00001280AD002280BD000280FD0344940310D
:1006F00003280ED0C969890704E02168890301E055
:1007000021688901002906DB0120F8BD216849051F
:10071000F8E7096AEFE7A168C908C9000143A160C9
:10072000FFF724FF009006E0FFF720FF0099411A31
:10073000224881421BD8A068382108407168C9004E
:100740008842F1D128684007400FB84217D91A48AB
:100750000168C908C90039430160FFF707FF054672
:1007600007E0FFF703FF411B1448814201D9032032
:10077000F8BD114800684007400FB842F1D1307809
:10078000400706D5A068072109038843F16808439C
:10079000A06000F01DF8A1683C2289091140094AB7
:1007A000515CC906C90EC84007490860074800687F
:1007B000FFF7FEFEF8BD0000002002408813000095
:1007C00000100240101E0008140000200C00002041
:1007D00010B5204CA068204A8006400F16D0A068B3
:1007E0008006410F1D4801290FD0A1688906490FD5
:1007F000022912D0A0688006400F042823D0A068E8
:100800008006400F032821D0002010BD2068012160
:100810008004400F8140104612E0E1688B07E168D8
:100820009B0F4906490F491C032B00D01046FFF7C8
:10083000C7FCE1684904490E4843E168490F491C77
:10084000FFF7BEFC10BD0120C00310BD7D200002DB
:1008500010BD0000001002400024F40000366E01BC
:10086000F8B504007ED020783827C007E94D00286D
:1008700046D0A868E96838408907890F102802D057
:1008800008280BD001E0032908D001206268000489
:1008900082420AD129680143296015E02868800353
:1008A0002ED560680028DDD02AE0052301211B0435
:1008B00089049A422A6802D10A432A60EAE78243FD
:1008C0002A60286888432860606800280CD0FFF7F9
:1008D0004DFE064604E0FFF749FE801B642873D8EE
:1008E00028688003F7D50BE0FFF740FE064604E0DA
:1008F000FFF73CFE801B6428F1D828688003F7D4FA
:100900002078800769D5A868E96838408A070721F8
:10091000920FC902102802D0002813D001E0022A49
:1009200010D0E068002846D0286888432169084331
:1009300028602868FF21013108432860FFF716FE70
:1009400006462CE02A68520502D5E268002A89D0C2
:100950006A687F231B029A4363691B021A436A6019
:10096000002800E08DE00ED1286888432169084303
:100970002860286801218004400F8140A648FFF7C5
:100980001FFCA6490860A6480068FFF711FE002872
:1009900077D122E0FFF7EAFD801B02289FD8286864
:1009A0004005F7D568687F2109028843616909021B
:1009B0000843686011E02968FF2001308143296005
:1009C000FFF7D4FD064605E098E0FFF7CFFD801B5A
:1009D000022884D828684005F7D42078914E000773
:1009E0002ED5A8688006400F03280AD0A0690028E9
:1009F000306A16D0012108433062FFF7B7FD074681
:100A00000BE0306A80071BD5A06900289FD017E053
:100A1000FFF7ACFDC01B022870D8306A8007F7D5FD
:100A20000EE0400840003062FFF7A0FD074604E0FA
:100A3000FFF79CFDC01B022860D8306A8007F7D4FE
:100A4000207840076CD5A86800278006400F04284E
:100A500018D0E86BC00008D4E96B012000070143FF
:100A6000E963E96B0140012700916F480168C905FE
:100A700019D40168821511430160FFF777FD0090DA
:100A80000DE083E0F06980074AD5A06800287DD09A
:100A900046E0FFF76BFD0099401A02282ED8624805
:100AA0000068C005F5D5A168012910D004200529EA
:100AB000F16911D049084900F161F1698143F1619F
:100AC000A068002816D0FFF751FD00900EE0F069F5
:100AD00001210843F061F3E70143F161F7E7FFF714
:100AE00045FD0099411A5148814265D8F069800757
:100AF000F5D50EE0FFF73AFD009007E05CE0FFF768
:100B000035FD0099411A4948814255D8F06980075E
:100B1000F5D4002F04D0E96B012000078143E9637D
:100B2000E069002873D0A9688906490F02294DD0D1
:100B3000012636060228286805D0B0432860FFF752
:100B400015FD04463AE0B0432860FFF70FFD074665
:100B500004E0FFF70BFDC01B02282DD82868800198
:100B6000F7D4616A206AA26A0843E16A120211435B
:100B70000843216B0843E9682D4A11400843E860A7
:100B8000286830432860E868012100E03DE009075B
:100B90000843E860FFF7EAFC044604E0FFF7E6FCE0
:100BA000001B022808D828688001F7D52FE0FFF73E
:100BB000DDFC001B022801D90320F8BD2868800154
:100BC000F5D4E8681B490840E86020E00128F4D02B
:100BD000E868226A8107890F914216D17021626A02
:100BE0000140914211D17F21A26A09020140120203
:100BF00091420AD11F214904E26A0140914204D185
:100C0000400F216B4007884201D00120F8BD002031
:100C1000F8BD0000001002400024F4001400002081
:100C20000C000020401002400070004088130000BB
:100C30008C80C11FFCFFFEEF094910B5401E8842A1
:100C400001D9012010BD074C60610321081F00F08D
:100C5000D9FD0020A06107202061002010BD000008
:100C6000FFFFFF0000E000E030B5034620331A7FAD
:100C7000012A49D001221A770325CA682D02AA4306
:100C80008D6800682A430125AD02AA434D680024FF
:100C90002A430125ED02AA430D682A4301252D03AD
:100CA000AA430D692A4301256D03AA434D692A43CE
:100CB0000125AD03AA430D6B2A430F252D04AA433A
:100CC0000D8B2D042A4301252D07AA43CD692A4304
:100CD0000E4DA84214D10F252D05AA430D8D2D05CB
:100CE0002A4301252D06AA430D6A2A4301256D06D4
:100CF000AA434D6AC96A2A4301256D07AA430A43DC
:100D000042641C77002030BD022030BD002C014021
:100D100070B5040005D025462035687F002802D034
:100D200006E0012070BD00202877204600F016F86C
:100D300002206877211D206800F0C4FB01224034A6
:100D40002272AA77EA7722706270A270E270227132
:100D50006271A271E2716A77002070BD08B5006807
:100D60000649884208D106480268012149040A431D
:100D7000026000680840009008BD00000044014087
:100D800040100240014620314A7F012A01D0012053
:100D9000704702224A770068094A0121904202D036
:100DA000084A904207D18268074B1A40062A05D0AC
:100DB000DB1F9A4202D002680A430260002070479B
:100DC000002C0140000400400700010010B586B06F
:100DD000044614216846FFF7F1F90D49206888425E
:100DE00014D10C48416B012211434163406B6946A9
:100DF00010400590402000900220019000200290B9
:100E00000390052004900007FFF7FCFA06B010BD20
:100E10000044014000100240F8B504460020264678
:100E200020360090307F0D4601280CD00120082785
:100E300030770C2A48D008DC002A10D0042A1ED0B3
:100E4000082A06D130E00220F8BD102A52D0142A18
:100E500060D001200090002030770098F8BD206815
:100E600000F082FB206881693943816120688169D3
:100E7000042291438161206881692A6911E0206818
:100E800000F0B0FB206881690122D2021143816128
:100E900020688169521091438161206881692A69C3
:100EA000120211438161D6E7206800F0D9FB206867
:100EB000C1693943C1612068C16904229143C1619C
:100EC0002068C1692A6912E0206800F007FC2068E8
:100ED000C1690122D2021143C1612068C2690121A6
:100EE00089028A43C2612068C1692A6912021143DA
:100EF000C161B0E7206800F025FC2068416D3943EE
:100F000041652068426D04218A4342652068416D35
:100F10002A6912E0206800F043FC2068416D01223C
:100F2000D202114341652068426D012189028A4342
:100F300042652068416D2A691202114341658AE7C2
:100F400070B5040005D025462035687F002802D002
:100F500006E0012070BD00202877204600F016F83A
:100F600002206877211D206800F0ACFA012240348D
:100F70002272AA77EA7722706270A270E270227100
:100F80006271A271E2716A77002070BD7047000043
:100F900030B505460223203000290ED0042911D097
:100FA0002C464034082912D00C2915D0102918D00D
:100FB000E278012A1AD0012030BD827F012AFAD1BD
:100FC000837714E0C27F012AF5D1C3770FE022783E
:100FD000012AF0D123700AE06278012AEBD1637014
:100FE00005E0A278012AE6D1A37000E0E3700122B7
:100FF000286800F0ABFA114A2868904205D01049E1
:10100000884202D00F49884204D1416C0123DB039E
:101010001943416428680121904202D00A4A904253
:1010200007D18268094B1A40062A05D0DB1F9A4275
:1010300002D002680A430260002030BD002C01404B
:101040000044014000480140000400400700010046
:10105000FEE7000070B508210D2000F0D9FD604CBE
:10106000A078012800D0002000F004FE08210E2006
:1010700000F0CEFDE078002808D001280ED002282C
:1010800011D0032817D0042822D028E00025002002
:1010900000F0F0FD6D1C042DF9DD20E0012000F0D2
:1010A000E9FD002003E0012000F0E4FD012000F054
:1010B000E1FD002006E0012000F0DCFD012000F051
:1010C000D9FD012000F0D6FD002000F0D3FD06E0A0
:1010D0000025012000F0CEFD6D1C042DF9DD082156
:1010E0001F2000F095FD2079012800D0002000F09D
:1010F000C1FD08212E2000F08BFD6079012800D071
:10110000002000F0B7FD08213B2000F081FDA07910
:10111000012800D0002000F0ADFD0821452000F09E
:1011200077FDE079012800D0002000F0A3FD082120
:101130005C2000F06DFD207A012800D0002000F036
:1011400099FD08215D2000F063FD607A002806D03B
:10115000012809D002280FD003280FD017E0002063
:1011600000F088FD002003E0002000F083FD012056
:1011700000F080FD002008E0002000E0012000F0E9
:1011800079FD012000F076FD012000F073FD0821BB
:10119000602000F03DFDA07A00F078FB0821672078
:1011A00000F036FDE07A00F071FB08216E2000F0BF
:1011B0002FFDA07B002801D0012801D100F05AFDAD
:1011C00008216F2000F024FD207B00F05FFB082148
:1011D000762000F01DFD607B00F058FB70BD000024
:1011E00018000020FFB581B0202A25D02D3AD0B2BA
:1011F000002418214843114F009002980019C1B2F1
:10120000019800F005FD20460C2148430099002577
:101210000E1870190499385C002901D0FF2148404C
:1012200000F028FD6D1CEDB20B2DF2D3641CE4B26E
:10123000022CE2D305B0F0BD0D20D9E72700002035
:10124000F8B51E4615460F4604460AE033463946B1
:101250002046FFF7C7FF28786D1C2E2805D00C34D8
:10126000E4B22A78002AF1D1F8BD241DF8E7000085
:1012700070B50546002000F0FDFCA80006490024DA
:10128000281845182819A038007800F0F3FC641CD1
:10129000052CF7DB70BD00001022000810B50446D5
:1012A00002E0641CFFF7E4FF20780028F9D110BDAC
:1012B000F0B587B014216846FEF780FF3548426BD1
:1012C00004210A434263426B0A400592426B20218B
:1012D0000A434263426B0A400592416B0124214359
:1012E0004163416B21400591416B022529434163D4
:1012F000416B29400591416B082631434163406BA6
:10130000254F30400590002239462448FFF728F940
:10131000052149020022C804FFF722F90022022118
:101320001F48FFF71DF900970027019402976946AF
:101330001A480397FFF766F8E003009001976946A3
:1013400002971648FFF75EF82002009005200197EB
:10135000694602970007FFF755F805204002009004
:101360001120019005200297694603970007FFF7B7
:1013700049F8029769460A48039700950194FFF7D8
:1013800041F801976946064802970096FFF73AF838
:1013900007B0F0BD00100240FF7C000000040050C8
:1013A000000C005010B594B01C210DA8FEF706FFEC
:1013B00034216846FEF702FF2148204901600024DD
:1013C000DC21846041600461446163218461C16007
:1013D000FFF79EFC002801D0FFF700F81848FFF740
:1013E000AFFD002801D0FEF7F9FF602012940E94A3
:1013F0000D900F941094119400220DA9139410488D
:10140000FFF70AFD002801D0FEF7E8FF0120009455
:101410004003019402940590039404940694694651
:101420000C940748FFF720FC002801D0FEF7D6FFF8
:101430000348FFF7CBFC14B010BD0000004401408E
:1014400078010020FEE77047704710B5FFF794F869
:1014500000F0FAF910BD30B591B034216846FEF7BE
:10146000ADFE002401200D940E940F9440021094C0
:10147000FFF7DCF8012000900004019003200890A1
:101480002020099010200A90400302250B90079518
:1014900000030C906846FFF7E3F9002801D072B60C
:1014A000FEE707200D900F9402210E9510940DA8D1
:1014B000FFF7E2F8002801D072B6FEE711B030BDA8
:1014C0007047000070B502681B4B1C4E984201D05B
:1014D000B04203D17024A2434C682243184C194DEA
:1014E000984208D0B04206D0174EB04203D0A04276
:1014F00001D0A84204D103263602B243CE6832435B
:101500008026B2434E69324302608A68C2620A682A
:101510008262984203D0A04201D0A84201D1096959
:101520000163012141610169C90703D001694908CB
:101530004900016170BD0000002C01400004004022
:1015400000440140004801400020004010B5CB0697
:10155000DB0E0121046A99408C430462016A9A40BF
:101560001143016210BD0000F0B5056A026A52081D
:101570005200026243688269164C184E224092085B
:101580000C6892001443022295438A682A43124D44
:10159000A84204D0B04202D0114FB84206D1082769
:1015A000BA43CF681743042297433A46A84204D06F
:1015B000B04202D00A4DA84206D103252D02AB430A
:1015C0004D691D438B692B434360846149684163C6
:1015D0000262F0BD8FFFFEFF002C0140004401407D
:1015E0000048014070B5046A026A10239A430262FF
:1015F00043688269164D2A4003252D02AA430D68CF
:101600002D021543202294438A6812012243114C73
:10161000A04207D18024A243CC6840262401224363
:10162000B24305E00C4CA04202D00C4CA04208D1C1
:101630000324A402A3434C69A4001C438B699B00B0
:1016400023434360856149688163026270BD000085
:10165000FF8FFFFE002C0140004401400048014084
:1016600070B5046A026AFF2301339A430262436839
:10167000C269164D2A4092080D6892001543012256
:10168000520294438A6812022243114CA04208D1AC
:101690001446CA68C614B443120222430415A24376
:1016A00005E00C4CA04202D00B4CA04208D1032410
:1016B0002403A3434C6924011C438B691B0123436E
:1016C0004360C5614968C163026270BD8FFFFEFF60
:1016D000002C0140004401400048014030B5046A3C
:1016E000026A01231B039A4302624368C269114DD7
:1016F0002A4003252D02AA430D682D02154301221D
:10170000520394438A68120322430B4CA04205D033
:101710000A4CA04202D00A4CA04205D10124A403E5
:10172000A3434C69A40123434360C5614968016434
:10173000026230BDFF8FFFFE002C014000440140DB
:101740000048014070B5036A026A01263604B243BC
:1017500002624268456D0E4C25400C682C437500B2
:10176000AB430D892D041D430A4B984205D00A4B0B
:10177000984202D0094B984203D14B69B2431B02F5
:101780001A434260446549688165056270BD000086
:101790008FFFFEFF002C0140004401400048014043
:1017A00070B5046A026A01231B059A43026242680B
:1017B000436D104D2B400D682D021D4301235B0529
:1017C0009C430B891E050C4B2643984205D00B4BBE
:1017D000984202D00A4B984206D101241346A40431
:1017E0004A69A34392021A43426045654968C1654C
:1017F000066270BDFF8FFFFE002C014000440140D7
:10180000004801408307FF22DB0E9A408907090E3A
:101810009940002808DB830809489B001B181868BA
:1018200090430843186070470007000F083883088A
:1018300004489B001B18D86990430843D86170473F
:1018400000E400E000ED00E00E480268002A06D047
:10185000012A06D0022A06D0032A06D006E000217B
:1018600004E0032102E0142100E03221064A43682B
:101870001268002B03D05B1E436051637047002049
:1018800050637047000000207801002010B5002848
:1018900031D0012837D0022840D0032849D004286D
:1018A00050D005283AD0062854D007285BD0082805
:1018B0006DD009287AD00A286FD00B286ED00C285A
:1018C0006DD00D286CD00E286BD00F286AD0102850
:1018D00069D0112868D0122867D0132871D0142835
:1018E00070D0152806D10024002000F0C3F9641C34
:1018F000062CF9DD10BD012000F0BCF9012000F03C
:10190000B9F9002081E0002000F0B4F9012000F0D6
:10191000B1F900208CE000F0ADF910BD012000F01D
:10192000A9F9012000F0A6F9012000F0A3F9002098
:1019300012E0012000F09EF900203BE000F09AF94F
:1019400001201DE0002000F095F9012000F092F93F
:1019500001200FE0012039E000F08CF9012000F0B7
:1019600089F901208BE0012000F084F9002000F0CB
:1019700081F9002000F07EF9002000F07BF90020C2
:1019800000F078F9012000F075F90120C3E701208B
:1019900000F070F9012035E008E014E015E01FE0E8
:1019A00023E02BE035E03CE046E050E0012000F091
:1019B00061F9012000F05EF9012000F05BF90020E0
:1019C000BCE74CE05FE0012037E0002000F052F976
:1019D000012000F04FF9012000F04CF90120BBE795
:1019E000002000F047F9002017E0012030E000F06F
:1019F00041F9012000F03EF901203DE0002000F017
:101A000039F9002000F036F9012000F033F9012007
:101A100094E7012000F02EF9012000F02BF90120BD
:101A2000E5E7012000F026F9012000F023F901206C
:101A300000F020F901201CE0002000F01BF901203B
:101A400000F018F9012000F015F9012095E70020B9
:101A500000F010F9012000F00DF90020C7E7002088
:101A600000F008F9002000F005F9012000F002F96B
:101A7000002000F0FFF8002000F0FCF8002000F04B
:101A8000F9F8002047E7002000F0F4F8002000F00B
:101A9000F1F8002000F0EEF80020ABE710B50121CE
:101AA000002209030148FEF75BFD10BD0004005051
:101AB00010B5012211030248FEF752FD10BD0000CF
:101AC0000004005070B50024E1B2002000F0A0F83E
:101AD0000025002000F0CEF86D1C842DF9DB641C7D
:101AE000082CF1DD70BD000070B5054600F072F8FD
:101AF000FFF7D4FF00F016F800F0A8F8084CA06932
:101B0000FF21090208402843A06100F0A9F8FFF76F
:101B1000CFFF00F011F8FF200004A06170BD0000AD
:101B20000004005010B50121002289020148FEF78F
:101B300017FD10BD0004005010B5012291020248AB
:101B4000FEF70EFD10BD00000004005010B500F0BF
:101B500087F8FFF7ADFFFFF7EFFF00F03BF800F06D
:101B600043F83220FEF73CFC00F048F83220FEF744
:101B700037FCA020FFF7B8FFC820FFF7B5FFA22071
:101B8000FFF7B2FF2C20FFF7AFFF0120FEF728FC84
:101B90002E20FFF7A9FF0120FEF722FC2F20FFF7E0
:101BA000A3FF2720FFF7A0FF8120FFF79DFF102054
:101BB000FFF79AFFAF20FFF797FFFFF783FFA520FE
:101BC000FFF792FF7D200001FEF70AFCA420FFF73B
:101BD0008BFF10BD10B5012291030248FEF7C0FC37
:101BE00010BD00000004005010B501210022C90200
:101BF0000148FEF7B5FC10BD0004005010B50122ED
:101C0000D1020248FEF7ACFC10BD000000040050F9
:101C100070B5044600070D46000FFFF765FF200969
:101C20001030FFF761FF2807000FB030FFF75CFFAF
:101C300070BD000010B5044A107051700622504368
:101C4000C0B2FFF7E5FF10BD1800002010B501215C
:101C5000002249030148FEF783FC10BD0004005038
:101C600010B5012251030248FEF77AFC10BD0000B6
:101C70000004005070B50546FFF71AFFFFF752FF4A
:101C8000FFF7E4FF074CA069FF2109020840284341
:101C9000A061FFF7E5FFFFF74FFFFF200004A06101
:101CA00070BD000000040050FEF76EFCFFF7D3FB90
:101CB000FFF7FEFAFFF776FB3D48FFF763F83C4974
:101CC00000200968486301463948FFF761F9394D3A
:101CD000394E64240122022130466C60FEF740FC3C
:101CE000FFF734FF0520FEF77BFBFFF7EBFE052037
:101CF000FEF776FB00210620FFF79CFF2FA0FFF7E1
:101D0000CDFA01210020FFF795FF2FA0FFF7C6FABB
:101D1000002333A203210120FFF792FA06210020BD
:101D2000FFF788FF31A0FFF7B9FA07210020FFF77E
:101D300081FF32A0FFF7B2FA6C607D2424010122FA
:101D4000022135463046FEF70BFC00210620FFF746
:101D500071FF1AA0FFF7A2FA01210020FFF76AFF26
:101D600019A0FFF79BFA00231DA203210120FFF712
:101D700067FA06210020FFF75DFF1CA0FFF78EFA2F
:101D800007210020FFF756FF1CA0FFF787FAFFF797
:101D900061F92046FEF724FB002202212846FEF7C7
:101DA000DFFBFFF757F92046FEF71AFBC7E70000F5
:101DB0007801002000000020000C005044656D6F89
:101DC00020415050000000004772617068696361F3
:101DD0006C204C434420313332783635000000000B
:101DE00030313233343536373839000053544D33BF
:101DF00032673033306338743600000044657665EE
:101E00006C6F706D656E7420426F617264000000CB
:101E100000000000000000000000000000000000C2
:101E200000000000000000000000000000000000B2
:101E30000100000002000000030000000400000098
:101E40000600000007000000080000000900000074
:101E500000000000000000000000000000000BF87F
:101E600000000000000000380000003800000220E0
:101E70000FF802200FF80220046008901FF80910E4
:101E800006200610012804900A400430073008C8D4
:101E900009300600090000000000001C00000000DE
:101EA000000000000FF81004000000000000100403
:101EB0000FF80000011000A003F800A001100100BD
:101EC000010007C00100010000002C001C00000000
:101ED0000000010001000100010000000C000C00E6
:101EE0000000000000000C00030000C000380000EB
:101EF00007F008080808080807F0000000100010A4
:101F00000FF800000C100A0809080888087004106F
:101F10000808088808880770030002C002300FF81C
:101F2000020004F8084808480848078807F00888AD
:101F300008880888071000080E0801880068001843
:101F4000077008880888088807700470088808885F
:101F5000088807F00CC00CC0000000000000000062
:101F60002CC01CC0000000000100028004400820BA
:101F7000000002800280028002800280082004406B
:101F8000028001000000001000080B0800880070AB
:101F900001E0021004C8052802F00F0002E0021858
:101FA00002E00F000FF8088808880888077007F01B
:101FB00008080808080804100FF8080808080410A2
:101FC00003E00FF808880888080800000FF8008868
:101FD00000880008000007F00808088804880F90AF
:101FE0000FF80080008000800FF800000FF800005C
:101FF0000000000006000800080007F800000FF8C5
:1020000000C0012002100C080FF8080008000800AA
:1020100008000FF80070018000700FF80FF8003012
:1020200000C003000FF807F008080808080807F0C8
:102030000FF8008800880088007007F008080A0878
:102040000C0817F00FF80088008800880F700470E3
:102050000888088808880710000800080FF800089A
:10206000000807F808000800080007F8003803C057
:102070000C0003C0003800F80F0000E00F0000F86B
:102080000E380140008001400E38003800400F80BB
:10209000004000380C080B08088808680818000081
:1020A0001FFC1004000000000000003800C0030006
:1020B0000C00000010041FFC0000000000100008CD
:1020C00000040008001010001000100010001000A4
:1020D0000008001000000000000006000940094050
:1020E00009400F800FF8084008400840078007802B
:1020F0000840084008400480078008400840084025
:102100000FF8078009400940094005800FF000489A
:1021100000480048001027802840284028401FC061
:102120000FF80080004000400F80000000000FC842
:1021300000000000200020001FC8000000000FF871
:102140000100028004400800000000000FF80000B9
:1021500000000FC000400F8000400F800FC00080C3
:10216000004000400F80078008400840084007807A
:102170003FC00840084008400780078008400840EA
:1021800008403FC00FC000800040004000000480B5
:1021900009400A400480000007F0084008400000A1
:1021A000000007C00800080004000FC000C00300C2
:1021B0000C00030000C001C00E0001C00E0001C0F1
:1021C0000CC0030003000CC00000200023C01C0052
:1021D000040003C00C400A40094008C00000000091
:1021E00000800F78100400000000000000001FF8BD
:1021F0000000000010040F780080000000100008AC
:102200000004000800100038004400440044003876
:10221000000000000000005F00000007000700143D
:102220007F147F14242A7F2A1223130864623649FC
:102230005522500005030000001C224100004122ED
:102240001C0014083E081408083E0808005030001E
:102250000008080808080060600000201008040258
:102260003E5149453E00427F40004261514946216E
:1022700041454B311814127F1027454545393C4ADA
:10228000494930017109050336494949360649492A
:10229000291E003636000000563600000814224180
:1022A00000141414141400412214080201510906E8
:1022B000324979413E7E1111117E7F494949363EAE
:1022C000414141227F4141221C7F494949417F09C7
:1022D0000909013E4149497A7F0808087F00417F8A
:1022E00041002040413F017F081422417F4040408F
:1022F000407F020C027F7F0408107F3E4141413E37
:102300007F090909063E4151215E7F091929464688
:102310004949493101017F01013F4040403F1F20B1
:1023200040201F3F4038403F631408146307087083
:1023300008076151494543007F41410002040810EC
:10234000200041417F00040201020440404040401F
:10235000000102040020545454787F484444383823
:1023600044444420384444487F3854545418087E28
:102370000901020C5252523E7F0804047800447D49
:1023800040002040443D007F1028440000417F4031
:10239000007C041804787C080404783844444438E9
:1023A0007C14141408081414187C7C0804040848CD
:1023B00054545420043F4440203C4040207C1C2086
:1023C00040201C3C4030403C44281028440C5050D5
:1023D000503C4464544C44000836410000007F00E7
:1023E0000000413608001008081008784641467879
:1023F0001024000800000020780100008603000877
:102400008024000878010020B006000004010008C4
:10241000720332018204031324F43A8001492D3AF5
:1024200003012934C1B3C0C03B02860142023B8193
:10243000C30132813CFC7A0601237AFC3C7EBCC09D
:1024400001A3BC7E1A7818812A3C18594839308A71
:10245000BD48A91869601ABD304BFC78A8394859A5
:10246000A82A3D180A107A903930991869602918FD
:10247000118A02A8A9906930A990A948E990011889
:04000005080000C12E
:00000001FF
